:10000000F4C0000004C1000002C1000000C10000F3
:10001000FEC00000FCC00000FAC00000F8C00000F4
:10002000F6C00000F4C00000F2C00000F0C0000004
:10003000EEC00000ECC00000EAC00000E8C0000014
:10004000E6C00000E4C00000E2C00000E0C0000024
:10005000DEC00000DCC00000DAC000009BC1000070
:10006000D6C00000D4C00000D2C00000D0C0000044
:10007000CEC00000CCC00000CAC00000C8C0000054
:10008000C6C00000C4C00000C2C00000C0C0000064
:10009000BEC00000BCC00000BAC00000B8C0000074
:1000A000B6C00000B4C00000B2C00000B0C0000084
:1000B000AEC00000ACC00000AAC00000A8C0000094
:1000C000A6C00000A4C00000A2C00000A0C00000A4
:1000D0009EC000009CC000009AC0000098C00000B4
:1000E00096C0000000002100240027002A002D00F7
:1000F0003000330001010000040107010A01000083
:100100002200250028002B002E00310034000201BF
:100110000000050108010B01050505050705080894
:100120000808020202020A0A080804040404010181
:100130000101010101010303030303030303040796
:1001400007070C0C0C0C0C0C0C0C0202020206062D
:100150000606060606060B0B0B0B0B0B0B0B010220
:1001600010202008081020401020408002010201C9
:100170000804020101020408102040808040201081
:1001800008040201800402018040201008040201DA
:100190000804020101020408102040800102040842
:1001A0001020408000000A0B02090C0D0E08070306
:1001B000040100000000000000000000000000003A
:1001C000000000000000000000000000000000002F
:1001D00012111000000000000000000000000000EC
:1001E0000000000000000000000011241FBECFEF3F
:1001F000D1E2DEBFCDBF00E00CBF22E0A0E0B2E064
:1002000001C01D92A930B207E1F70ED1ADC1F8CE01
:10021000382FE1EBF1E08491EBE6F1E02491E5E2A7
:10022000F1E09491992309F434C0882309F18150B5
:100230008231F0F4E82FF0E08827EF5DFE4F8F4F1A
:100240008BC15201560133014A014E013801590157
:100250005F01630169016D01710177017B01380163
:100260007F0185018901809180008F7780938000D4
:10027000E92FF0E0EE0FFF1FE250FF4FA591B49180
:100280008FB7F894EC91311148C020952E232C9310
:100290008FBF0895809180008F7DE8CF809180008E
:1002A000877FE4CF84B58F7784BDE2CF84B58F7D1F
:1002B000FBCF8091B0008F778093B000D9CF809131
:1002C000B0008F7DF9CF809190008F778093900060
:1002D000CFCF809190008F7DF9CF80919000877F64
:1002E000F5CF8091A0008F778093A000C1CF80913F
:1002F000A0008F7DF9CF8091A000877FF5CF8091FE
:1003000020018F7780932001B3CF809120018F7DD2
:10031000F9CF80912001877FF5CF2E2BB8CF3FB743
:10032000F8948091050290910602A0910702B09185
:10033000080226B5A89B05C02F3F19F00196A11D04
:10034000B11D3FBFBA2FA92F982F8827BC01CD011F
:10035000620F711D811D911D42E0660F771F881F7E
:10036000991F4A95D1F70895CF92DF92EF92FF92AD
:10037000D6DF6B017C01D3DF6C197D098E099F09E3
:10038000683E734081059105B0F3FF90EF90DF90D8
:10039000CF9008951F920F920FB60F9211242F93B2
:1003A0003F938F939F93AF93BF938091010290915E
:1003B0000202A0910302B09104023091000223E0F6
:1003C000230F2D3758F50196A11DB11D2093000272
:1003D0008093010290930202A0930302B09304025F
:1003E0008091050290910602A0910702B091080247
:1003F0000196A11DB11D8093050290930602A09362
:100400000702B0930802BF91AF919F918F913F91E6
:100410002F910F900FBE0F901F90189526E8230F75
:100420000296A11DB11DD2CF789484B5826084BD9F
:1004300084B5816084BD85B5826085BD85B58160E8
:1004400085BD80916E00816080936E001092810066
:100450008091810082608093810080918100816021
:1004600080938100809180008160809380008091E2
:10047000B10084608093B1008091B000816080936E
:10048000B0008091910082608093910080919100F2
:1004900081608093910080919000816080939000B2
:1004A0008091A10082608093A1008091A100816071
:1004B0008093A1008091A00081608093A000809132
:1004C00021018260809321018091210181608093CC
:1004D00021018091200181608093200180917A0028
:1004E000846080937A0080917A00826080937A00A1
:1004F00080917A00816080937A0080917A00806890
:1005000080937A001092C100EBE6F1E02491E5E2DD
:10051000F1E08491882399F090E0880F991FFC0105
:10052000EC51FF4FA591B491FC01E250FF4F859132
:1005300094918FB7F894EC91E22BEC938FBFC0E0CD
:10054000D0E081E065DE10DF80E062DE0DDF209725
:10055000C1F30E940000F5CFEE0FFF1F881F8BBF75
:0C0560000790F691E02D1994F894FFCF5D
:00000001FF
