:10000000F5C0000023C1000021C100001FC1000095
:100010001DC100001BC1000019C1000017C1000074
:1000200015C1000013C1000011C100000FC1000084
:100030000DC100000BC1000009C1000007C1000094
:1000400005C1000003C1000001C10000FFC00000A5
:10005000FDC00000FBC00000F9C00000A9C6000000
:10006000F5C00000F3C00000F1C00000EFC00000C8
:10007000EDC00000EBC00000E9C00000E7C00000D8
:10008000E5C00000E3C00000E1C00000DFC00000E8
:10009000DDC00000DBC00000D9C00000D7C00000F8
:1000A000D5C00000D3C00000D1C00000CFC0000008
:1000B000CDC00000CBC00000C9C00000C7C0000018
:1000C000C5C00000C3C00000C1C00000BFC0000028
:1000D000BDC00000BBC00000B9C00000B7C0000038
:1000E000B5C0000000000A0B02090C0D0E08070342
:1000F00004010000000000000000000000000000FB
:1001000000000000000000000000000000000000EF
:1001100012111000000000000000000000000000AC
:100120000000000000000000000000002200250088
:1001300028002B002E0031003400020100000501D0
:1001400008010B0100002100240027002A002D00D7
:100150003000330001010000040107010A01050518
:100160000505070508080808020202020A0A08082D
:10017000040404040101010101010101030303035B
:1001800003030303040707070C0C0C0C0C0C0C0CEA
:100190000202020206060606060606060B0B0B0BFB
:1001A0000B0B0B0B01021020200808102040102020
:1001B000408002010201080402010102040810202B
:1001C0004080804020100804020180040201804029
:1001D0002010080402010804020101020408102092
:1001E00040800102040810204080140811241FBE22
:1001F000CFEFD1E2DEBFCDBF00E00CBF12E0A0E048
:10020000B2E0EAEBF5E100E00BBF02C007900D920F
:10021000AA31B107D9F722E0AAE1B2E001C01D92EC
:10022000AF3EB207E1F710E0C6EFD0E000E006C055
:1002300021970109802FFE010E94B10AC53FD10715
:1002400080E00807A9F7FED50C94DB0AD9CE90E030
:10025000FC01EC55FE4F2491825A9E4FFC01849183
:10026000882399F090E0880F991FFC01EC5BFE4F0A
:10027000A591B491FC01E65DFE4F859194918FB7F5
:10028000F894EC91E22BEC938FBF0895282F30E087
:10029000F901EC51FF4F9491F901EC55FE4F449157
:1002A000225A3E4FF9012491222309F435C09923A3
:1002B00011F191509231F8F4E92FF0E08827EC59D0
:1002C000FE4F8F4F0C94B10A9501990176018D0173
:1002D00091017B019C01A201A601AC01B001B40116
:1002E000BA01BE017B01C201C801CC01809180002E
:1002F0008F7780938000E22FF0E0EE0FFF1FE65D26
:10030000FE4FA591B4918FB7F894EC91611148C05C
:1003100040954E234C938FBF0895809180008F7D30
:10032000E8CF80918000877FE4CF84B58F7784BD4C
:10033000E2CF84B58F7DFBCF8091B0008F77809323
:10034000B000D9CF8091B0008F7DF9CF809190001F
:100350008F7780939000CFCF809190008F7DF9CFE1
:1003600080919000877FF5CF8091A0008F77809358
:10037000A000C1CF8091A0008F7DF9CF8091A00017
:10038000877FF5CF809120018F7780932001B3CFB5
:10039000809120018F7DF9CF80912001877FF5CF5B
:1003A0004E2BB8CFCF93DF93FC0123812223F9F0AA
:1003B000EC0184814CDF8D814ADF8B81843011F028
:1003C000883079F48E8143DF8F8141DF8FA58F3FA5
:1003D00071F03DDF6EA581E068278FA5DF91CF9199
:1003E00055CF833011F0863089F78E81EECFDF91C3
:1003F000CF910895CF93DF93FC012381222391F0C5
:10040000EC010190F081E02D0480F581E02D60E0A9
:1004100019958FA58F3F31F01ADF6EA58FA5DF915B
:10042000CF9134CFDF91CF910895DC01ED91FC9114
:1004300011972481358147705527662777274150CA
:10044000510961097109473051056105710570F461
:10045000FA018827E15DFD4F8F4F0C94B10A3A02F3
:100460003C023E02400242024402460261E0CD01EB
:10047000F901199465E0FBCF64E0F9CF66E0F7CFAE
:1004800062E0F5CF6AE0F3CF68E0F1CF69E0EFCF4B
:10049000CF93DF93EC01CB01BA0126E030E040E0DE
:1004A00050E00E94950A623071058105910589F13D
:1004B0006CF46115710581059105D1F0613071050C
:1004C00081059105F9F0DF91CF91089564307105B0
:1004D0008105910561F124F1653071058105910572
:1004E00091F7E881F9810480F581E02D66E006C08E
:1004F000E881F9810480F581E02D64E0CE01DF918F
:10050000CF911994E881F9810480F581E02D65E0AF
:10051000F5CFE881F9810480F581E02D61E0EECF2F
:10052000E881F9810480F581E02D63E0E7CFE8817F
:10053000F9810480F581E02D62E0E0CFDC01ED91EE
:10054000FC910480F581E02D4370552766277727BD
:10055000423051056105710571F043305105610567
:10056000710559F0413051056105710511F065E0E3
:10057000199466E0FDCF6AE0FBCF69E0F9CFCF9335
:10058000DF93EC01CB01BA0123E030E040E050E022
:10059000CCD7613071058105910599F06230710504
:1005A00081059105A9F0672B682B692BC1F4E881BF
:1005B000F9810480F581E02D64E0CE01DF91CF91D7
:1005C0001994E881F9810480F581E02D61E0F5CF8F
:1005D000E881F9810480F581E02D62E0EECFDF91C2
:1005E000CF910895DC01ED91FC910480F581E02D1F
:1005F00043705527662777274230510561057105FD
:1006000071F0433051056105710559F041305105D4
:100610006105710511F062E0199463E0FDCF61E0BE
:10062000FBCF60E0F9CFCF93DF93EC01E881F98154
:100630000480F581E02D8A8160E0811162E0CE01C5
:100640001995E881F9810480F581E02D8A8161E0C6
:10065000811163E0CE0119958CA59DA5823091058D
:1006600038F0880F991F880F991F05970197F1F7A8
:10067000E881F9810480F581E02D8A8160E08111B3
:1006800062E0CE01DF91CF911994CF93DF93EC011B
:1006900020E030E0A9016C897D898E899F8987D609
:1006A00018162CF4E8A9F9A9DF91CF911994EAA9B9
:1006B000FBA9FACFCF92DF92EF92FF920F931F9395
:1006C000CF93DF93DC011396CC91C43039F0C8305E
:1006D00051F1C33019F0C63041F1C2E08C010C5F1A
:1006E0001F4FF12CE12CC62ED12CD1E0F8016481F2
:1006F000C6010E2C02C0959587950A94E2F780FDFD
:100700006D270F5F1F4F8081C1DDBFEFEB1AFB0A22
:10071000EC1660F3DF91CF911F910F91FF90EF9056
:10072000DF90CF900895C4E0D9CFC3E0D7CFDC01EC
:100730001396EC911397E93008F041C0F0E0882758
:10074000EC55FC4F8F4F0DC7AD03B503BC03C3037E
:10075000CA03DF03D103DF03D803ED91FC911197A6
:100760000084F185E02DCD011994ED91FC91119754
:100770000284F385E02DF7CFED91FC91119704846D
:10078000F585E02DF0CFED91FC9111970684F7856A
:10079000E02DE9CFED91FC9111970088F189E02DD2
:1007A000E2CFED91FC9111970288F389E02DDBCF28
:1007B000ED91FC9111970488F589E02DD4CF08952F
:1007C0004F925F926F927F928F929F92AF92BF9261
:1007D000CF92DF92EF92FF920F931F93CF93DF930D
:1007E000EC01C888D988EA88FB888C859D85AE8510
:1007F000BF85C81AD90AEA0AFB0A6C897D898E89E5
:100800009F899B01AC01D7D54B015C016C8D7D8D1F
:100810008E8D9F8D9B01AC0117D49B01AC01C5014E
:10082000B4017AD4E1D4C114D104E104F10409F093
:10083000AAC062307105810591050CF0C4C01CA2EC
:100840001DA21EA21FA21C8A1D8A1E8A1F8A1CAA04
:100850001DAA1EAA1FAADF91CF911F910F91FF9091
:10086000EF90DF90CF90BF90AF909F908F907F9050
:100870006F905F904F9008951016110612061306A0
:10088000B4F46C157D058E059F051CF42A81211199
:100890009AC09B01AC0188279927DC01821B930B2E
:1008A000A40BB50B8CAB9DABAEABBFAB8CC0011535
:1008B00011052105310509F486C06C157D058E05ED
:1008C0009F050CF080C08A81882309F47CC0309594
:1008D0002095109501951F4F2F4F3F4F0CAB1DAB2F
:1008E0002EAB3FAB70C0011511052105310509F490
:1008F0006AC08824992454018C189D08AE08BF084A
:10090000681579058A059B050CF05DC08A81811107
:100910005AC0DDCFCCACDDACEEACFFACA70196018C
:10092000C701B60191D32B013C01C501B4018FD49D
:1009300020E030E040E850E43ED520E030E040E800
:100940005FE382D39B01AC01C301B201E5D39B01FC
:10095000AC01C701B60177D33B016C01FE01E05C3D
:10096000FF4FE080F180028113819701A8011FD51C
:10097000181614F473018601C701D8018CAF9DAF1E
:10098000AEAFBFAF3AC00CA91DA92EA93FA91C1438
:100990001D041E041F040CF46FCF1016110612065E
:1009A00013060CF0A0CF0027112798010C191D0980
:1009B0002E093F0960177107820793070CF069CF72
:1009C0002A81211166CF8CA89DA8AEA8BFA881144A
:1009D0009104A104B10409F09DCF88AD99ADAAADF1
:1009E000BBAD8CAF9DAFAEAFBFAF81E01C141D049B
:1009F0001E041F040CF080E08A833FEF831A930AE1
:100A0000A30AB30A8CAA9DAAAEAABFAACCACDDAC3D
:100A1000EEACFFACC701B601ECD36CA37DA38EA3F3
:100A20009FA3A701960160E074E284E799E474D380
:100A30006C8B7D8B8E8B9F8B2A8121110CCF9058D4
:100A40006C8B7D8B8E8B9F8B06CFCF92DF92EF923C
:100A5000FF92CF93DF93EC0120E030E046E954E4CD
:100A6000688D798D8A8D9B8D53D3882309F43EC080
:100A700080E090E0A6E9B4E4888F998FAA8FBB8FBD
:100A800085E595E5A0E5B4E4FE01E05CFF4F8083D9
:100A90009183A283B3838CA99DA9AEA9BFA918167F
:100AA00019061A061B0614F56C897D898E899F89A3
:100AB0009B01AC0180D46B017C016C8D7D8D8E8D92
:100AC0009F8D9B01AC01C0D29B01AC01C701B60157
:100AD00023D38AD36CAB7DAB8EAB9FABCE01DF91C2
:100AE000CF91FF90EF90DF90CF906ACEDF91CF91C2
:100AF000FF90EF90DF90CF900895CF92DF92EF922A
:100B0000FF92CF93DF93EC018CA19DA1AEA1BFA179
:100B1000892B8A2B8B2B09F451C03FB7F894809115
:100B20001A0290911B02A0911C02B0911D0226B5E1
:100B3000A89B05C02F3F19F00196A11DB11D3FBF15
:100B4000BA2FA92F982F88276C017D01C20ED11CC6
:100B5000E11CF11C42E0CC0CDD1CEE1CFF1C4A9594
:100B6000D1F788A599A5AAA5BBA5B701A601481BE1
:100B7000590B6A0B7B0B8CA19DA1AEA1BFA148179D
:100B800059076A077B07D0F08C859D85AE85BF85A8
:100B90002A81222399F10196A11DB11D8C879D8781
:100BA000AE87BF874C855D856E857F85CE01BFDDB5
:100BB000C8A6D9A6EAA6FBA6CE0102DE20E030E058
:100BC000A9016C897D898E899F89A2D281111AC061
:100BD00081E0C888D988EA88FB884C855D856E8568
:100BE0007F85C416D506E606F70609F480E0DF9196
:100BF000CF91FF90EF90DF90CF9008950197A109DA
:100C0000B109CCCF81E0F3CF4F925F926F927F9288
:100C10008F929F92AF92BF92CF92DF92EF92FF920C
:100C2000CF93DF93EC016A017B0120E030E0A90162
:100C3000CB01B6016DD287FF04C0F7FAF094F7F844
:100C4000F0948C8C9D8CAE8CBF8CA7019601C50155
:100C5000B4015ED2882309F440C06CA97DA98EA995
:100C60009FA9F5D22B013C01A7019601C501B40152
:100C700053D29B01AC01C301B2019DD3B5D26CAB81
:100C80007DAB8EAB9FABA701960160E070E080E08A
:100C900090E442D2F7D326E53EE04DE25FE38BD30A
:100CA00020E034E244E759E486D368AF79AF8AAFF5
:100CB0009BAFCC8EDD8EEE8EFF8ECE01DF91CF917D
:100CC000FF90EF90DF90CF90BF90AF909F908F906C
:100CD0007F906F905F904F9073CDDF91CF91FF9099
:100CE000EF90DF90CF90BF90AF909F908F907F90CC
:100CF0006F905F904F900895CF93DF93EC0184E065
:100D000092E09983888381E08B831C861D861E86F2
:100D10001F86188A198A1A8A1B8A1C8A1D8A1E8AAB
:100D20001F8A80E090E0A0E8BFE3888F998FAA8FA8
:100D3000BB8F1C8E1D8E1E8E1F8E88A399A3AAA307
:100D4000BBA31CA21DA21EA21FA221E030E03DA752
:100D50002CA72FEF2FA718A619A61AA61BA66C83DF
:100D60004D8324E02E8325E02F831EA61CAA1DAAF6
:100D70001EAA1FAA18AE19AE1AAE1BAE1CAE1DAE2F
:100D80001EAE1FAEFE01E05CFF4F80839183A28305
:100D9000B3831A82188619861A861B86CE0102DB57
:100DA00040E050E060E87FE3CE01DF91CF912CCFAF
:100DB0001F920F920FB60F9211242F933F938F9390
:100DC0009F93AF93BF9380911F0290912002A091B7
:100DD0002102B091220230911E0223E0230F2D3711
:100DE00058F50196A11DB11D20931E0280931F028C
:100DF00090932002A0932102B093220280911A02C4
:100E000090911B02A0911C02B0911D020196A11DA0
:100E1000B11D80931A0290931B02A0931C02B09301
:100E20001D02BF91AF919F918F913F912F910F9094
:100E30000FBE0F901F90189526E8230F0296A11D54
:100E4000B11DD2CF789484B5826084BD84B58160B1
:100E500084BD85B5826085BD85B5816085BD809185
:100E60006E00816080936E001092810080918100FD
:100E700082608093810080918100816080938100F5
:100E8000809180008160809380008091B1008460B7
:100E90008093B1008091B00081608093B000809118
:100EA0009100826080939100809191008160809395
:100EB0009100809190008160809390008091A100CA
:100EC00082608093A1008091A10081608093A10045
:100ED0008091A00081608093A000809121018260B8
:100EE0008093210180912101816080932101809173
:100EF000200181608093200180917A00846080933A
:100F00007A0080917A00826080937A0080917A00E2
:100F1000816080937A0080917A00806880937A0063
:100F20001092C1008BEA92E090DD40E050E066E96B
:100F300073E48BEA92E068DE8091BB029091BC0280
:100F4000A091BD02B091BE0280349244AF40B10581
:100F500079F080E492E4AFE0B0E08093BB0290933C
:100F6000BC02A093BD02B093BE028BEA92E028DCE3
:100F700087E692E06ADD40E050E066E973E487E6E8
:100F800092E042DE8091770290917802A0917902FE
:100F9000B0917A0280349244AF40B10579F080E498
:100FA00092E4AFE0B0E08093770290937802A09350
:100FB0007902B0937A0287E692E002DC83E292E063
:100FC00044DD40E050E066E973E483E292E01CDE39
:100FD0008091330290913402A0913502B091360293
:100FE00080349244AF40B10579F080E492E4AFE000
:100FF000B0E08093330290933402A0933502B09313
:10100000360283E292E0DCDBC0E0D0E08BEA92E0E3
:1010100074DD87E692E071DD83E292E06EDD209779
:10102000A9F30E940000F2CF47E066E08BEA92E06D
:1010300063DE49E068E087E692E05EDE4BE06AE06E
:1010400083E292E059CE5058BB27AA270ED075C133
:1010500066D130F06BD120F031F49F3F11F41EF4D3
:101060005BC10EF4E095E7FB51C1E92F77D180F326
:10107000BA17620773078407950718F071F49EF595
:101080008FC10EF4E0950B2EBA2FA02D0B01B901E4
:1010900090010C01CA01A0011124FF27591B99F0EE
:1010A000593F50F4503E68F11A16F040A22F232FFA
:1010B000342F4427585FF3CF469537952795A7954A
:1010C000F0405395C9F77EF41F16BA0B620B730BF1
:1010D000840BBAF09150A1F0FF0FBB1F661F771F62
:1010E000881FC2F70EC0BA0F621F731F841F48F417
:1010F000879577956795B795F7959E3F08F0B3CF9D
:101100009395880F08F09927EE0F97958795089586
:10111000D9D008F481E008950CD00FC107D140F078
:10112000FED030F021F45F3F19F0F0C0511139C109
:10113000F3C014D198F39923C9F35523B1F3951B48
:10114000550BBB27AA2762177307840738F09F5FE8
:101150005F4F220F331F441FAA1FA9F333D00E2E57
:101160003AF0E0E830D091505040E695001CCAF7C4
:1011700029D0FE2F27D0660F771F881FBB1F261789
:1011800037074807AB07B0E809F0BB0B802DBF015C
:10119000FF2793585F4F2AF09E3F510568F0B6C075
:1011A00000C15F3FECF3983EDCF386957795679539
:1011B000B795F7959F5FC9F7880F911D969587950D
:1011C00097F90895E1E0660F771F881FBB1F62172C
:1011D00073078407BA0720F0621B730B840BBA0BEA
:1011E000EE1F88F7E095089504D06894B111D9C036
:1011F0000895BCD088F09F5790F0B92F9927B75128
:10120000A0F0D1F0660F771F881F991F1AF0BA95CA
:10121000C9F712C0B13081F0C3D0B1E00895C0C0A9
:10122000672F782F8827B85F39F0B93FCCF38695C0
:1012300077956795B395D9F73EF49095809570951D
:1012400061957F4F8F4F9F4F0895E89409C097FB9A
:101250003EF490958095709561957F4F8F4F9F4F8D
:101260009923A9F0F92F96E9BB279395F6958795D1
:1012700077956795B795F111F8CFFAF4BB0F11F494
:1012800060FF1BC06F5F7F4F8F4F9F4F16C088233B
:1012900011F096E911C0772321F09EE8872F762F71
:1012A00005C0662371F096E8862F70E060E02AF0B2
:1012B0009A95660F771F881FDAF7880F969587959E
:1012C00097F90895990F0008550FAA0BE0E8FEEF73
:1012D00016161706E807F907C0F012161306E407FA
:1012E000F50798F0621B730B840B950B39F40A26F3
:1012F00061F0232B242B252B21F408950A2609F4D1
:10130000A140A6958FEF811D811D089597F99F67D4
:1013100080E870E060E008959FEF80EC089500247D
:101320000A941616170618060906089500240A944A
:1013300012161306140605060895092E0394000CD0
:1013400011F4882352F0BB0F40F4BF2B11F460FF5F
:1013500004C06F5F7F4F8F4F9F4F089557FD905888
:10136000440F551F59F05F3F71F04795880F97FB69
:10137000991F61F09F3F79F0879508951216130623
:101380001406551FF2CF4695F1DF08C01616170652
:101390001806991FF1CF8695710561050894089587
:1013A000E894BB2766277727CB0197F908958ADF52
:1013B00008F48FEF08950BD0C0CFB1DF28F0B6DF6F
:1013C00018F0952309F0A2CFA7CF1124EACFC6DFEA
:1013D000A0F3959FD1F3950F50E0551F629FF00148
:1013E000729FBB27F00DB11D639FAA27F00DB11DA1
:1013F000AA1F649F6627B00DA11D661F829F22272A
:10140000B00DA11D621F739FB00DA11D621F839FB0
:10141000A00D611D221F749F3327A00D611D231F86
:10142000849F600D211D822F762F6A2F11249F57D4
:1014300050408AF0E1F088234AF0EE0FFF1FBB1FF7
:10144000661F771F881F91505040A9F79E3F510596
:1014500070F05CCFA6CF5F3FECF3983EDCF386954F
:1014600077956795B795F795E7959F5FC1F7FE2B41
:10147000880F911D9695879597F9089511F40EF4AC
:101480004BCF3EC073DFD0F39923D9F3CEF39F57F0
:10149000550B87FF43D00024A0E640EA9001805816
:1014A0005695979528F4805C660F771F881F20F06B
:1014B00026173707480730F4621B730B840B20296B
:1014C00031294A2BA69517940794202531254A27C0
:1014D00058F7660F771F881F20F026173707480731
:1014E00030F4620B730B840B200D311D411DA09550
:1014F00081F7B901842F9158880F969587950895A3
:101500009F3F31F0915020F4879577956795B79577
:10151000880F911D9695879597F9089591505040A1
:10152000660F771F881FD2F70895052E97FB16F4D4
:1015300000940FD057FD05D01CD007FC02D046F414
:1015400008C050954095309521953F4F4F4F5F4FC4
:10155000089590958095709561957F4F8F4F9F4F1F
:101560000895EE0FFF1F881F8BBF0790F691E02DA7
:101570001994A1E21A2EAA1BBB1BFD010DC0AA1FC4
:10158000BB1FEE1FFF1FA217B307E407F50720F0EC
:10159000A21BB30BE40BF50B661F771F881F991F67
:1015A0001A9469F760957095809590959B01AC01B0
:0A15B000BD01CF010895F894FFCFAC
:1015BA0000000000FA01D2015A03970345031303FE
:0A15CA00F202BF029E024802150261
:00000001FF
